S01700004763634170706C69636174696F6E312E737265635B
S11300000C9434000C9451000C9451000C94510045
S11300100C9451000C9451000C9451000C94510018
S11300200C9451000C9451000C9451000C94510008
S11300300C9451000C9451000C9451000C945100F8
S11300400C9451000C9451000C9451000C945100E8
S11300500C9451000C9451000C9451000C945100D8
S11300600C9492010C94510011241FBECFEFD8E0E0
S1130070DEBFCDBF11E0A0E0B1E0E2EEF3E002C0EC
S113008005900D92AE31B107D9F715E0AEE1B1E0BC
S113009001C01D92AD32B107E1F70E940E010C942C
S11300A0EF010C94000023B123B123B123B10197D4
S11300B0D1F7089580FF02C02E9A01C02E986BB923
S11300C02F9A2F9886E590E00E945300089580E4CB
S11300D09CE90E94530088E060E30E945A0084E097
S11300E090E10E94530088E060E30E945A0084E695
S11300F090E00E94530088E060E30E945A0088E088
S113010068E30E945A0080E068E00E945A0080E0A0
S113011061E00E945A0084EF9BE00E94530080E05B
S113012066E00E945A0080E06CE00E945A0010923F
S11301301E0110921F01089580931F0160931E01F8
S1130140823030F4683230F480FD605C606803C053
S11301506CE001C06CE080E00E945A000895CF93E7
S1130160DF93682FC0911F01C23078F58D3029F4D8
S11301708C2F60E00E949C0028C08A3031F48C2FC0
S11301808F5F60E00E949C0020C08C3069F480E0A6
S113019061E00E945A0084EF9BE00E94530080E0DB
S11301A060E00E949C0011C0D0911E01D83268F416
S11301B085E00E945A00DF5FD0931E01D83228F0F8
S11301C08C2F8F5F60E00E949C00DF91CF91089597
S11301D026E027B9FC018081803319F48FE087B9C8
S11301E00895813319F487E087B9089517B80895FD
S11301F0E82FF92FA0E0B1E08DE00D90019281503D
S1130200E1F7089580E168EE70E048EF50E00E9465
S113021045018FEF88B98FE087B908950E940201E4
S1130220FFCF8FEF84B915B88FE387B918B880EF83
S11302308AB91BB8089580912505909126050097E9
S113024039F4E0912101F091220185E291E00995D0
S1130250E0912505F0912605EB5DFE4F8081882312
S113026041F484E28093BB00109226051092250588
S113027008958093BB0080912505909126050196F1
S11302809093260580932505089570932401609327
S1130290230150932201409321010E9482018CE5A5
S11302A091E06BE171E00E9479010895E0912301EE
S11302B0F09124010995089592E097B920912705BA
S11302C030912805F901EB5DFC4F8083843251F4B1
S11302D085E293E010820E94560110922805109244
S11302E0270508952F5F3F4F309328052093270556
S11302F0089590932A058093290570932C056093A3
S11303002B050895F894880F8093BA0085EC8093A8
S1130310BC0078940895F8941092BC001092BA002E
S1130320789408951F920F920FB60F9211242F9371
S11303303F934F935F936F937F938F939F93AF9369
S1130340BF93EF93FF938091B90090E0887F907002
S11303508038910569F0813891051CF4009729F1E2
S11303602AC0883A910579F0883B910521F514C09B
S11303708091BB00E0912905F0912A05099585EC4F
S11303808093BC001BC0E0912B05F0912C050995CE
S113039085EC8093BC0012C0E0912B05F0912C05F4
S11303A0099585EC8093BC0009C0ECEBF0E0108269
S11303B085EC808303C085EC8093BC00FF91EF91B2
S11303C0BF91AF919F918F917F916F915F914F9169
S11303D03F912F910F900FBE0F901F901895F89496
S10503E0FFCF49
S11303E248656C6C6F20576F726C640A0068656CA8
S11103F26C6F2061767220776F726C6400006D
S9030000FC
