S01700004763634170706C69636174696F6E312E737265635B
S11300000C9434000C9451000C9451000C94510045
S11300100C9451000C9451000C9451000C94510018
S11300200C9451000C9451000C9451000C94510008
S11300300C9451000C9451000C9451000C945100F8
S11300400C9451000C9451000C9451000C945100E8
S11300500C9451000C9451000C9451000C945100D8
S11300600C9475000C94510011241FBECFEFD8E0FE
S1130070DEBFCDBF11E0A0E0B1E0E8EAF1E002C0EC
S113008005900D92A030B107D9F711E0A0E0B1E0DE
S113009001C01D92A730B107E1F70E9457000C94EC
S11300A0D2000C94000080E10E94650008950E9433
S11300B05300FFCF089508959093040180930301A2
S11300C070930601609305010895F894880F809356
S11300D0BA0085EC8093BC0078940895F89410924B
S11300E0BC001092BA00789408951F920F920FB634
S11300F00F9211242F933F934F935F936F937F93AA
S11301008F939F93AF93BF93EF93FF938091B90025
S113011090E0887F90708038910569F0813891056E
S11301201CF4009729F12AC0883A910579F0883B9C
S1130130910521F514C08091BB00E0910301F09179
S11301400401099585EC8093BC001BC0E091050176
S1130150F0910601099585EC8093BC0012C0E091F2
S11301600501F0910601099585EC8093BC0009C056
S1130170ECEBF0E0108285EC808303C085EC809387
S1130180BC00FF91EF91BF91AF919F918F917F91AF
S11301906F915F914F913F912F910F900FBE0F90F0
S10B01A01F901895F894FFCF9D
S9030000FC
