:100000000C9435000C945D000C945D000C945D0024
:100010000C945D000C945D000C945D000C945D00EC
:100020000C945D000C945D000C945D000C945D00DC
:100030000C945D000C945D000C945D000C945D00CC
:100040000C945D000C945D000C945D000C945D00BC
:100050000C945D000C945D000C945D000C945D00AC
:100060000C945F010C945D001B0111241FBECFEFA7
:10007000D8E0DEBFCDBF11E0A0E0B1E0E8E8F3E0FA
:1000800002C005900D92A031B107D9F715E0A0E1AB
:10009000B1E001C01D92AB31B107E1F710E0CAE653
:1000A000D0E004C02297FE010E94BE01C836D107ED
:1000B000C9F70E9418010C94C2010C94000023B1EE
:1000C00023B123B123B10197D1F7089580FF02C076
:1000D0002E9A01C02E986BB92F9A2F9886E590E042
:1000E0000E945F00089580E49CE90E945F0088E020
:1000F00060E30E94660084E090E10E945F0088E077
:1001000060E30E94660084E690E00E945F0088E061
:1001100060E30E94660088E068E30E94660080E079
:1001200068E00E94660080E061E00E94660084EF63
:100130009BE00E945F0080E066E00E94660080E035
:100140006CE00E9466001092100110921101089557
:100150008093110160931001823030F4683230F4E2
:1001600080FD605C606803C06CE001C06CE080E012
:100170000E9466000895CF93DF93682FC09111010C
:10018000C23078F58D3029F48C2F60E00E94A800F1
:1001900028C08A3031F48C2F8F5F60E00E94A80065
:1001A00020C08C3069F480E061E00E94660084EF3A
:1001B0009BE00E945F0080E060E00E94A80011C008
:1001C000D0911001D83268F485E00E946600DF5FAC
:1001D000D0931001D83228F08C2F8F5F60E00E94FE
:1001E000A800DF91CF910895089508958FEF84B905
:1001F00015B88FE387B918B880EF8AB91BB808958E
:100200000F931F93CF93DF930E94F6000E94730019
:10021000C0E0D1E08E01015F1F4F89910E94BB00B9
:10022000C017D107D1F7DF91CF911F910F9108959A
:100230000E940001FFCF82E191E060E144EF50E0D5
:1002400025EF30E00E9425010895FC01862FDF0193
:10025000A050BC4F4D935C93EE5FFB4F31832083E6
:100260000E944F010895FC01E050FC4F0190F08185
:10027000E02DCB01099508950895FC016083643257
:1002800021F41082BF010E94330108959093180554
:100290008093170570931A05609319050895F894D3
:1002A000880F8093BA0085EC8093BC007894089501
:1002B000F8941092BC001092BA00789408951F929E
:1002C0000F920FB60F9211242F933F934F935F938A
:1002D0006F937F938F939F93AF93BF93EF93FF930E
:1002E0008091B90090E0887F90708038910569F026
:1002F000813891051CF4009729F12AC0883A9105AC
:1003000079F0883B910521F514C08091BB00E09104
:100310001705F0911805099585EC8093BC001BC06A
:10032000E0911905F0911A05099585EC8093BC00C0
:1003300012C0E0911905F0911A05099585EC80939A
:10034000BC0009C0ECEBF0E0108285EC808303C0B8
:1003500085EC8093BC00FF91EF91BF91AF919F918D
:100360008F917F916F915F914F913F912F910F905E
:100370000FBE0F901F901895EE0FFF1F0590F49180
:08038000E02D0994F894FFCF71
:1003880068656C6C6F2061767220776F726C6400A0
:00000001FF
