:100000000C9434000C9451000C9451000C94510049
:100010000C9451000C9451000C9451000C9451001C
:100020000C9451000C9451000C9451000C9451000C
:100030000C9451000C9451000C9451000C945100FC
:100040000C9451000C9451000C9451000C945100EC
:100050000C9451000C9451000C9451000C945100DC
:100060000C9460010C94510011241FBECFEFD8E016
:10007000DEBFCDBF11E0A0E0B1E0EEE7F3E002C0EB
:1000800005900D92A031B107D9F715E0A0E1B1E0DC
:1000900001C01D92AD31B107E1F70E9405010C943A
:1000A000BD010C94000023B123B123B123B101970A
:1000B000D1F7089580FF02C02E9A01C02E986BB927
:1000C0002F9A2F9886E590E00E945300089580E4CF
:1000D0009CE90E94530088E060E30E945A0084E09B
:1000E00090E10E94530088E060E30E945A0084E699
:1000F00090E00E94530088E060E30E945A0088E08C
:1001000068E30E945A0080E068E00E945A0080E0A4
:1001100061E00E945A0084EF9BE00E94530080E05F
:1001200066E00E945A0080E06CE00E945A00109243
:100130001001109211010895809311016093100134
:10014000823030F4683230F480FD605C606803C057
:100150006CE001C06CE080E00E945A000895CF93EB
:10016000DF93682FC0911101C23078F58D3029F4EA
:100170008C2F60E00E949C0028C08A3031F48C2FC4
:100180008F5F60E00E949C0020C08C3069F480E0AA
:1001900061E00E945A0084EF9BE00E94530080E0DF
:1001A00060E00E949C0011C0D0911001D83268F428
:1001B00085E00E945A00DF5FD0931001D83228F00A
:1001C0008C2F8F5F60E00E949C00DF91CF9108959B
:1001D00026E027B9FC018081803319F48FE087B9CC
:1001E0000895813319F487E087B9089517B8089501
:1001F000089580E168EE70E048EF50E00E9413013E
:100200008FEF88B98FE087B908950E94F900FFCF7A
:100210008FEF84B915B88FE387B918B880EF8AB922
:100220001BB80895089570931601609315015093BB
:100230001401409313010E9450018AE291E062E1AF
:1002400071E00E9447010895E0911501F0911601B7
:100250000995089592E097B92091170530911805F6
:10026000F901E95EFE4F8083843251F487E191E029
:1002700010820E942401109218051092170508950B
:100280002F5F3F4F309318052093170508959093E3
:100290001A058093190570931C0560931B0508953A
:1002A000F894880F8093BA0085EC8093BC00789412
:1002B0000895F8941092BC001092BA0078940895B2
:1002C0001F920F920FB60F9211242F933F934F93CB
:1002D0005F936F937F938F939F93AF93BF93EF93AE
:1002E000FF938091B90090E0887F907080389105ED
:1002F00069F0813891051CF4009729F12AC0883AE9
:10030000910579F0883B910521F514C08091BB00DF
:10031000E0911905F0911A05099585EC8093BC00D0
:100320001BC0E0911B05F0911C05099585EC80939D
:10033000BC0012C0E0911B05F0911C05099585ECED
:100340008093BC0009C0ECEBF0E0108285EC808368
:1003500003C085EC8093BC00FF91EF91BF91AF91FA
:100360009F918F917F916F915F914F913F912F91CD
:0E0370000F900FBE0F901F901895F894FFCFBE
:10037E0068656C6C6F2061767220776F726C6400AA
:00000001FF
